:060000000A128A11122809
:10000800FE00030EF0000408F1000A08F200831253
:1000180003137F08F3000A168A151A280A168A1588
:1000280008288312031385181A281B2815281C284A
:10003800851C1F2820282E28013076067704031DEA
:10004800262827282E28013083160313AA000030FB
:10005800AB002E288312851C322833283F28051D23
:10006800362837283F28023083160313AA000030A9
:10007800AB003F283F2883128514851C4428452857
:100088005728831603132B08803AFF0080307F021D
:10009800031D502802302A02031C532856280A162A
:1000A8008A158D2F57288312031310100130F4007E
:1000B8000030F5000A168A1567200A128A1183167D
:1000C80003132B08803AFF0080307F02031D6E283F
:1000D80001302A02031C71287228CD2983160313C4
:1000E8002B08803AFF0080307F02031D7D280330F3
:1000F8002A02031880288128CD29831603132F0884
:100108002E04031D88288928CD2902302A062B04AD
:10011800031D8F28902864293508803AFF00803015
:100128007F02031D99282030340203189C289D283B
:10013800A628013083160313B4070318B50A003044
:10014800B507A6280030F4000030F5000A168A1515
:1001580067200A128A11023083120313AE0000309E
:10016800AF004230B0000030B100831603133508E9
:1001780083120313B301B3078316031334088312DE
:100188000313B201B2070A128A1168270A128A11E8
:10019800003083120313AA000030AB008316031348
:1001A800350883120313AD01AD0783160313340812
:1001B80083120313AC01AC070030AE000030AF006F
:1001C8000A168A1552230A128A11831203132B085E
:1001D800F901F9072A08F801F8070030AA000030E9
:1001E800AB0083160313350883120313AD01AD0763
:1001F80083160313340883120313AC01AC070030D1
:10020800AE000030AF000A168A1552230A128A116E
:10021800831203132B08B601B6072A08B501B507E0
:100228000A168A15A2210A128A11013083120313B1
:10023800B5000030B6000030AA000030AB008316CD
:100248000313350883120313AD01AD078316031397
:10025800340883120313AC01AC070030AE00003041
:10026800AF000A168A1552230A128A118312031341
:100278002B08B801B8072A08B701B7070A168A1564
:10028800C7240A128A11013083160313AE00003006
:10029800AF000130F4000030F5000A168A15672017
:1002A8000A128A1157298312031385185C295D29BC
:1002B800572905196029612957296429642964295E
:1002C800831285186829692964296A2900308316E8
:1002D800031333021F3003193202031874297529D6
:1002E800BF292F082E04031D7A297B29BF29013035
:1002F8002A062B04031D81298229BF290030F40016
:100308000030F5000A168A1567200A128A1183162A
:1003180003133208013EB20033080318013E003EC1
:10032800B3000130B0070318B10A0030B107320832
:100338000A168A152D200A128A1102308312031315
:10034800AE000030AF004630B0000030B100831678
:100358000313310883120313B301B307831603137E
:10036800300883120313B201B2070A128A116827F0
:100378000A128A11BF290130F4000030F5000A166C
:100388008A1567200A128A1183160313AE01AF017A
:10039800CD2983160313AE01AF010230F4000030FB
:1003A800F5000A168A1567200A128A1183160313A4
:1003B8002908831203138F00831603132808831256
:1003C80003138E000130F6000030F7008316031384
:1003D800AC01AD018312031310148B2A831203138B
:1003E800851DF729F829682A77087604031DFD2951
:1003F800FE29682A0030F4000030F5000A168A1534
:1004080067200A128A11003083120313A0000030FB
:10041800A1007C30DA005A08A200A301C430DB0036
:100428005B08A400A5010A168A15C7200A128A11BA
:10043800003083120313A0000030A1007C30DA00E2
:100448005A08A200C030DB005B08A3007F30DC0044
:100458005C08A400A5010A168A15C7200A128A1189
:10046800033083160313AC000030AD000130AE003A
:100478000030AF00023083120313C2000030C30003
:100488007908C501C5077808C401C4070A168A1186
:1004980085210A128A11831203134308F901F90707
:1004A8004208F801F8070130F4000030F5000A1698
:1004B8008A1567200A128A11612A83120313851983
:1004C800662A672A612A682A851D6B2A6C2A7A2A75
:1004D800013076067704031D722A732A7A2A0130BE
:1004E80083160313AC000030AD007A2A8312851DF1
:1004F8007E2A7F2A8B2A051D822A832A8B2A02308C
:1005080083160313AC000030AD008B2A8B2A8312AC
:100518008515851D902A912AA12A831603132D0873
:10052800803AFF0080307F02031D9C2A02302C0293
:10053800031C9F2AA02AF229A12A83120313101050
:100548000130F4000030F5000A168A1567200A12F7
:100558008A11831603132D08803AFF0080307F022A
:10056800031DB82A01302C02031CBB2ABC2A132CF9
:10057800831603132D08803AFF0080307F02031D85
:10058800C72A03302C020318CA2ACB2A132C831635
:1005980003132F082E04031DD22AD32A132C02304A
:1005A8002C062D04031DD92ADA2AAD2B3508803AEA
:1005B800FF0080307F02031DE32A01303402031C50
:1005C800E62AE72AF02AFF3083160313B407031834
:1005D800B50AFF30B507F02A0030F4000030F50006
:1005E8000A168A1567200A128A1102308312031329
:1005F800AE000030AF004230B0000030B1008316CA
:100608000313350883120313B301B30783160313C7
:10061800340883120313B201B2070A128A11682739
:100628000A128A11003083120313AA000030AB00AB
:1006380083160313350883120313AD01AD07831620
:100648000313340883120313AC01AC070030AE0067
:100658000030AF000A168A1552230A128A11831233
:1006680003132B08F901F9072A08F801F8070030E5
:10067800AA000030AB008316031335088312031356
:10068800AD01AD0783160313340883120313AC01BD
:10069800AC070030AE000030AF000A168A155223AE
:1006A8000A128A11831203132B08B601B6072A0807
:1006B800B501B5070A168A15A2210A128A11013056
:1006C80083120313B5000030B6000030AA000030D2
:1006D800AB0083160313350883120313AD01AD076E
:1006E80083160313340883120313AC01AC070030DC
:1006F800AE000030AF000A168A1552230A128A117A
:10070800831203132B08B801B8072A08B701B707E3
:100718000A168A15C7240A128A110130F40000301B
:10072800F5000A168A1567200A128A110130831605
:100738000313AE000030AF00A12B83128519A52B3F
:10074800A62BA12B0519A92BAA2BA12BAD2BAD2BC1
:10075800AD2B83128519B12BB22BAD2BB32B83167E
:100768000313330832040319BA2BBB2B052C2F08AB
:100778002E04031DC02BC12B052C01302C062D0483
:10078800031DC72BC82B052C0030F4000030F500E2
:100798000A168A1567200A128A118316031332086B
:1007A800FF3EB20033080318013EFF3EB300FF309E
:1007B800B0070318B10AFF30B10732080A168A15C4
:1007C8002D200A128A11023083120313AE00003062
:1007D800AF004630B0000030B10083160313310873
:1007E80083120313B301B30783160313300883126C
:1007F8000313B201B2070A128A1168270A128A1172
:10080800052C0130F4000030F5000A168A1567201F
:100818000A128A1183160313AE01AF01132C831633
:100828000313AE01AF010130F4000030F5000A16E1
:100838008A1567200A128A11C73083120313DA0057
:100848006400DA0B242C282C640083120313051D82
:100858002E2C2F2C242D8518322C332C242D851941
:10086800362C372C242D0230F4000030F5000A16FF
:100878008A1567200A128A1183160313290883121E
:1008880003138F00831603132808831203138E00A3
:100898000130F6000030F7001014FA2C051D552C15
:1008A800562CD72C77087604031D5B2C5C2CD72C90
:1008B8000030F4000030F5000A168A1567200A1285
:1008C8008A11013083160313A0000030A1003508F7
:1008D80083120313CA01CA07831603133408831249
:1008E8000313C901C9077908CC01CC077808CB01E3
:1008F800CB070A128A15EB200A128A1102308312DA
:100908000313AE000030AF004630B0000030B10035
:1009180083160313310883120313B301B307831635
:100928000313300883120313B201B2070A128A11A3
:1009380068270A128A11023083120313AE000030AE
:10094800AF004230B0000030B10083160313350801
:1009580083120313B301B3078316031334088312F6
:100968000313B201B2070A128A1168270A128A1100
:10097800013083120313B5000030B6007908B801BE
:10098800B8077808B701B7070A168A15C7240A12E4
:100998008A110130F4000030F5000A168A15672024
:1009A8000A128A11D72C83120313051DDC2CDD2CA7
:1009B800EB2C013076067704031DE32CE42CEB2C9A
:1009C800013083160313A4000030A500EB2C83121A
:1009D8008519EF2CF02CF42C851CF32CF42CFA2C14
:1009E800051DF72CF82CFA2CFE2CFE2C0519FD2CD5
:1009F800FE2C522C10100130F4000030F5000A16BD
:100A08008A1567200A128A118312031385190D2D7E
:100A18000E2D1C2D8518112D122D1C2D013083161D
:100A2800031320062104031D1A2D1B2D242D1C2D14
:100A380083160313A401A501A001A101242D242DCF
:100A48000030F4000030F5000A168A1567200A12F3
:100A58008A11023083120313AE000030AF00463013
:100A6800B0000030B100831603133108831203135A
:100A7800B301B30783160313300883120313B201BB
:100A8800B2070A128A1168270A128A1102308312E1
:100A98000313AE000030AF004230B0000030B100A8
:100AA80083160313350883120313B301B3078316A0
:100AB8000313340883120313B201B2070A128A110E
:100AC80068270A128A11013083120313B500003017
:100AD800B6007908B801B8077808B701B7070A1649
:100AE8008A15C7240A128A110130F4000030F50073
:100AF8000A168A1567200A128A11822D8316031393
:100B0800250824040319892D8C2D0A168A155C2FB3
:100B18008D2D0030F4000030F5000A168A15672084
:100B28000A128A11831203130713871283160313F9
:100B3800A401A501A601A70183120313081201301D
:100B48008316031322062304031DAB2DAC2D1C2E84
:100B5800320883120313DA005A08F50000300A1627
:100B68008A1590200A128A118316031330088312FB
:100B78000313DA005A08F50001300A168A15902086
:100B88000A128A110A3083120313A0000030A10050
:100B98007908A301A3077808A201A2070A168A15F3
:100BA800DC220A128A11831203132008DA005A0879
:100BB800F50002300A168A1590200A128A110A30A6
:100BC80083120313A0000030A1007908A301A30732
:100BD8007808A201A2070A168A1501220A128A11A8
:100BE800831203132008DA005A08F50003300A16A6
:100BF8008A1590200A128A11831603133408831267
:100C08000313DA005A08F50004300A168A159020F2
:100C18000A128A1183160313A201A3018312031374
:100C28000812162E0519192E1A2E162E1C2E1C2ED9
:100C38000130F4000030F5000A168A1567200A1200
:100C48008A11262E83120313051B2B2E2C2E312ED0
:100C5800871C2F2E302E442F312E8316031327087E
:100C68002604031D382E392E542E8312031308161A
:100C78000030F4000030F5000A168A1567200A12C1
:100C88008A11013083160313A6000030A7000A1644
:100C98008A15D8230A128A11831203138615542E33
:100CA8008312871C582E5B2E0A168A11EA280030F8
:100CB800F4000030F5000A168A1567200A128A1116
:100CC800003083120313A0000030A1007C30DA004A
:100CD8005A08A200A3018030DB005B08A400A5012C
:100CE8000A168A15C7200A128A11003083120313C4
:100CF800A0000030A1007C30DA005A08A200C03001
:100D0800DB005B08A3002830DC005C08A400A50118
:100D18000A168A15C7200A128A1100308312031393
:100D2800A0000030A1007C30DA005A08A200C030D0
:100D3800DB005B08A3003E30DC005C08A400A501D2
:100D48000A168A15C7200A128A1100308312031363
:100D5800A0000030A1007C30DA005A08A200C030A0
:100D6800DB005B08A3003C30DC005C08A400A501A4
:100D78000A168A15C7200A128A1100308312031333
:100D8800A0000030A1007C30DA005A08A200C03070
:100D9800DB005B08A3002930DC005C08A400A50187
:100DA8000A168A15C7200A128A1100308312031303
:100DB800A0000030A1007C30DA005A08A200C03040
:100DC800DB005B08A3002F30DC005C08A400A50151
:100DD8000A168A15C7200A128A11003083120313D3
:100DE800A0000030A1007C30DA005A08A200C03010
:100DF800DB005B08A300B130DC005C08A400A5019F
:100E08000A168A15C7200A128A11003083120313A2
:100E1800A0000030A1007C30DA005A08A200C030DF
:100E2800DB005B08A300B930DC005C08A400A50166
:100E38000A168A15C7200A128A1100308312031372
:100E4800A0000030A1007C30DA005A08A200C030AF
:100E5800DB005B08A300DE30DC005C08A400A50111
:100E68000A168A15C7200A128A110130F4000030C8
:100E7800F5000A168A1567200A128A11582E582E6C
:100E88000030F4000030F5000A168A1567200A12AF
:100E98008A1183120313861107138712831603130B
:100EA800A601A7018312031308120130F4000030D1
:100EB800F5000A168A1567200A128A11582E582E2C
:100EC800582E0A128A1112280A3083120313A0001E
:100ED8000030A1003308A301A3073208A201A2072A
:100EE8000A168A150C210A128A1183120313210883
:100EF800BA01BA072008B901B9070A30A6000030BC
:100F0800A7003308A901A9073208A801A8070A16EB
:100F18008A1552210A128A11831203132708B8016D
:100F2800B8072608B701B7070F303905B4000030F5
:100F38003A05B50030303404B90000303504BA0041
:100F48000F303705B40000303805B50030303404B0
:100F5800B70000303504B8000030A0000030A10010
:100F68007C30B4003408A200A3013008803EB500EC
:100F78003508A400A5010A168A15C7200A128A1185
:100F8800003083120313A0000030A1007C30B400AD
:100F98003408A200C030B5003508A3003708B600F1
:100FA8003608A400A5010A168A15C7200A128A1154
:100FB8000230831203132E062F04031DE42FE52F9E
:100FC800FC2F0030A0000030A1007C30B4003408B1
:100FD800A200C030B5003508A3003908B6003608AD
:100FE800A400A5010A168A15C7200A128A11FC2F27
:060FF8000800FD34023484
:10100000F4008312031386158C11740893000828CA
:101010008316031314180D280E28082810281028EA
:1010200083128C1D1428152810288611080083129D
:10103000031307138230A800DD30A700A70B1E287A
:10104000A80B1E2823288312031307170330A900B7
:101050008A30A8005630A700A70B2C28A80B2C28F4
:10106000A90B2C283328013083120313A000003071
:10107000A1006A30A7002708A2001030A8002808A5
:10108000A3006030A9002908A400A5010A168A154A
:10109000C7200A128A15013083120313A000003002
:1010A000A1006A30A7002708A2003F30A800280846
:1010B000A300A4011330A9002908A5000A168A1567
:1010C000C7200A128A15013083120313A0000030D2
:1010D000A1006A30A7002708A2000230A800280853
:1010E000A300A4010730A9002908A5000A168A1543
:1010F000C7200A128A15013083120313A0000030A2
:10110000A1006A30A7002708A2000430A800280820
:10111000A30056300A168A1548200A128A15033988
:10112000C03883120313A9002908A4008030AA0044
:101130002A08A5000A168A15C7200A128A15013046
:1011400083120313A0000030A1006A30A700270813
:10115000A2001630A8002808A3000930A900290819
:10116000A4000230AA002A08A5000A168A15C72082
:101170000A128A15013083120313A0000030A10067
:101180006A30A7002708A2000A30A8002808A30098
:101190000430A9002908A400A5010A168A15C72051
:1011A0000A128A15013083120313A0000030A10037
:1011B0006A30A7002708A2000C30A8002808A30066
:1011C000A4012C30A9002908A5000A168A15C720F9
:1011D0000A128A15080083120313D401D501D00125
:1011E000D1010030AA000030AB004A08AD01AD07C4
:1011F0004908AC01AC070030AE000030AF000A1661
:101200008A1552230A128A15831203132B08D3015D
:10121000D3072A08D201D207142C0030A0000030D6
:10122000A1007C30CD004D08A200A301A40103144D
:10123000A40DA5010A168A15C7200A128A150030C6
:1012400083120313A0000030A1007C30CD004D08B4
:10125000A200A301C030CE004E08A400A5010A16CA
:101260008A15C7200A128A15003083120313A000C2
:101270000030A1007C30CD004D08A200C030CE006F
:101280004E08A3002030CF004F08A400A5010A1685
:101290008A15C7200A128A15003083120313A00092
:1012A0000030A1007C30CD004D08A200A301C33066
:1012B000CE004E08A400A5010A168A15C7200A12FE
:1012C0008A15003083120313A0000030A1007C3087
:1012D000CD004D08A200C030CE004E08A3002E3035
:1012E000CF004F08A400A5010A168A15C7200A12CC
:1012F0008A15003083120313A0000030A1007C3057
:10130000CD004D08A200A301C530CE004E08A400B8
:10131000A5010A168A15C7200A128A150030831201
:101320000313A0000030A1007C30CD004D08A200C6
:10133000C030CE004E08A3004D30CF004F08A400AF
:10134000A5010A168A15C7200A128A1500308312D1
:101350000313A0000030A1007C30CD004D08A20096
:10136000C030CE004E08A3004830CF004F08A40084
:10137000A5010A168A15C7200A128A1500308312A1
:101380000313A0000030A1007C30CD004D08A20066
:10139000C030CE004E08A3007A30CF004F08A40022
:1013A000A5010A168A15C7200A128A150030831271
:1013B0000313A0000030A1007C30CD004D08A20036
:1013C000A3018030CE004E08A400A5010A168A159C
:1013D000C7200A128A15003083120313A0000030C0
:1013E000A1007C30CD004D08A200C030CE004E08D8
:1013F000A3004E30CF004F08A400A5010A168A159D
:10140000C7200A128A15003083120313A00000308F
:10141000A1007C30CD004D08A200C030CE004E08A7
:10142000A3006F30CF004F08A400A5010A168A154B
:10143000C7200A128A15023083120313AE0000304F
:10144000AF000230B0000030B1004A08B301B3076A
:101450004908B201B2070A128A1168270A128A15CE
:10146000413083120313B5000030B6005308B801B1
:10147000B8075208B701B7070A168A15C7240A1217
:101480008A15422A831203130519472A482A422A39
:1014900085184B2A4C2A422A85194F2A502A422A5B
:1014A000672B672B4E30CE00EB30CD00CD0B562A8C
:1014B000CE0B562A83120313851C5F2A602AE12A69
:1014C0004A08803AFF0080307F02031D692A2030DD
:1014D000490203186C2A6D2A912A003083120313E3
:1014E000AA000030AB000130C9070318CA0A003057
:1014F000CA074A08AD01AD074908AC01AC07003086
:10150000AE000030AF000A168A1552230A128A155F
:10151000831203132B08D301D3072A08D201D20761
:10152000912A023083120313AE000030AF00023064
:10153000B0000030B1004A08B301B3074908B20156
:10154000B2070A128A1168270A128A1541308312DB
:101550000313B5000030B6005308B801B8075208AD
:10156000B701B7070A168A15C7240A128A15D32AA3
:10157000851DBB2ABC2AC52A851CBF2AC02AC52AAC
:101580000130D4000030D500C52A851CC82AC92ADC
:10159000D32A051DCC2ACD2AD32A0230D40000300C
:1015A000D500D32AD32A83120313851CD82AD92A1B
:1015B000E12A550854040319DE2ADF2AB82AE12A51
:1015C000E12A851DE42AE52A672B4A08803AFF00B4
:1015D00080307F02031DEE2A01304902031CF12AEC
:1015E000F22A162B003083120313AA000030AB003E
:1015F000FF30C9070318CA0AFF30CA074A08AD01FD
:10160000AD074908AC01AC070030AE000030AF00B8
:101610000A168A1552230A128A15831203132B08FD
:10162000D301D3072A08D201D207162B0230831226
:101630000313AE000030AF000230B0000030B10044
:101640004A08B301B3074908B201B2070A128A1166
:1016500068270A128A15413083120313B50000303F
:10166000B6005308B801B8075208B701B7070A1601
:101670008A15C7240A128A15582B851D402B412B29
:101680004A2B851C442B452B4A2B0130D4000030BB
:10169000D5004A2B851D4D2B4E2B582B051D512B4C
:1016A000522B582B0330D4000030D500582B582B28
:1016B00083120313851D5D2B5E2B672B5508540485
:1016C0000319632B642B3D2B672B672B672B051DA1
:1016D0006A2B6B2B752B85186E2B6F2B752B851D2D
:1016E000722B732B7D2B752B752B55085404031906
:1016F0007A2B7B2B522A7D2B7D2B55085404031DFE
:10170000822B832BFF2B0030A0000030A1007C3007
:10171000CD004D08A200A301C130CE004E08A400A8
:10172000A5010A168A15C7200A128A1500308312ED
:101730000313A0000030A1007C30CD004D08A200B2
:10174000C030CE004E08A3004F30CF004F08A40099
:10175000A5010A168A15C7200A128A1500308312BD
:101760000313A0000030A1007C30CD004D08A20082
:10177000C030CE004E08A3004B30CF004F08A4006D
:10178000A5010A168A15C7200A128A15003083128D
:101790000313A0000030A1007C30CD004D08A20052
:1017A000C030CE004E08A3003F30CF004F08A40049
:1017B000A5010A168A15C7200A128A15DF2B831283
:1017C0000313851DE42BE52BED2BE72BE72B851968
:1017D000EA2BEB2BE72B142C142C851CF02BF12B74
:1017E000DF2B0130D0000030D100F62B8518F92B0B
:1017F000FA2BF62B142C142CDF2BDF2B142C550872
:10180000803AFF0080307F02031D082C0130540213
:10181000031C0B2C0C2C142C013083120313D0004E
:101820000030D100142C142C8312031351085004DF
:1018300003191B2C1C2C0D291D2CD001D10155087E
:101840005404031D242C252CD92C0130AA0000306F
:10185000AB004A08AD01AD074908AC01AC074C0824
:10186000AF01AF074B08AE01AE070A168A15522327
:101870000A128A15003083120313AA000030AB004D
:101880004A08AD01AD074908AC01AC070030AE0015
:101890000030AF000A168A1552230A128A158312E5
:1018A00003132B08D301D3072A08D201D207023031
:1018B000AE000030AF000230B0000030B1004A0886
:1018C000B301B3074908B201B2070A128A116827A7
:1018D0000A128A15403083120313B5000030B60097
:1018E0005308B801B8075208B701B7070A168A1596
:1018F000C7240A128A15003083120313A000003097
:10190000A1007C30CD004D08A200A301C430CE0060
:101910004E08A400A5010A168A15C7200A128A15C6
:10192000003083120313A0000030A1007C30CD00F2
:101930004D08A200C030CE004E08A3002030CF00DA
:101940004F08A400A5010A168A15C7200A128A1595
:10195000003083120313A0000030A1007C30CD00C2
:101960004D08A200C030CE004E08A3004F30CF007B
:101970004F08A400A5010A168A15C7200A128A1565
:10198000003083120313A0000030A1007C30CD0092
:101990004D08A200C030CE004E08A3004B30CF004F
:1019A0004F08A400A5010A168A15C7200A128A1535
:1019B000D72F01308312031354065504031DE12C65
:1019C000E22C6A2D0030A0000030A1007C30CD0058
:1019D0004D08A200A301A4010314A40DA5010A1639
:1019E0008A15C7200A128A15003083120313A0003B
:1019F0000030A1007C30CD004D08A200A301823050
:101A0000CE004E08A400A5010A168A15C7200A12A6
:101A10008A15003083120313A0000030A1007C302F
:101A2000CD004D08A200C030CE004E08A3004230C9
:101A3000CF004F08A400A5010A168A15C7200A1274
:101A40008A15003083120313A0000030A1007C30FF
:101A5000CD004D08A200C030CE004E08A30061307A
:101A6000CF004F08A400A5010A168A15C7200A1244
:101A70008A15003083120313A0000030A1007C30CF
:101A8000CD004D08A200C030CE004E08A300633048
:101A9000CF004F08A400A5010A168A15C7200A1214
:101AA0008A15003083120313A0000030A1007C309F
:101AB000CD004D08A200C030CE004E08A3006B3010
:101AC000CF004F08A400A5010A168A15C7200A12E4
:101AD0008A15D72F02308312031354065504031DB1
:101AE000722D732D002E0030A0000030A1007C303C
:101AF000CD004D08A200A301A4010314A40DA5016B
:101B00000A168A15C7200A128A1500308312031399
:101B1000A0000030A1007C30CD004D08A200A30140
:101B20008030CE004E08A400A5010A168A15C720F1
:101B30000A128A15003083120313A0000030A1009E
:101B40007C30CD004D08A200C030CE004E08A3006E
:101B50004230CF004F08A400A5010A168A15C720FD
:101B60000A128A15003083120313A0000030A1006E
:101B70007C30CD004D08A200C030CE004E08A3003E
:101B80004130CF004F08A400A5010A168A15C720CE
:101B90000A128A15003083120313A0000030A1003E
:101BA0007C30CD004D08A200C030CE004E08A3000E
:101BB0005330CF004F08A400A5010A168A15C7208C
:101BC0000A128A15003083120313A0000030A1000E
:101BD0007C30CD004D08A200C030CE004E08A300DE
:101BE0005330CF004F08A400A5010A168A15C7205C
:101BF0000A128A150A168A115B260A128A15D72F2D
:101C000003308312031354065504031D082E092EB6
:101C1000D72F0030A0000030A1007C30CD004D084F
:101C2000A200A301A4010314A40DA5010A168A159C
:101C3000C7200A128A15003083120313A000003057
:101C4000A1007C30CD004D08A200A3018130CE0060
:101C50004E08A400A5010A168A15C7200A128A1583
:101C6000003083120313A0000030A1007C30CD00AF
:101C70004D08A200C030CE004E08A3005330CF0064
:101C80004F08A400A5010A168A15C7200A128A1552
:101C9000003083120313A0000030A1007C30CD007F
:101CA0004D08A200C030CE004E08A3004E30CF0039
:101CB0004F08A400A5010A168A15C7200A128A1522
:101CC000003083120313A0000030A1007C30CD004F
:101CD0004D08A200C030CE004E08A3005230CF0005
:101CE0004F08A400A5010A168A15C7200A128A15F2
:101CF000003083120313A0000030A1007C30CD001F
:101D00004D08A200A301C230CE004E08A400A501D8
:101D10000A168A15C7200A128A1500308312031387
:101D2000A0000030A1007C30CD004D08A200C030E2
:101D3000CE004E08A3005330CF004F08A400A501E9
:101D40000A168A15C7200A128A1500308312031357
:101D5000A0000030A1007C30CD004D08A200C030B2
:101D6000CE004E08A3004E30CF004F08A400A501BE
:101D70000A168A15C7200A128A150A168A1118230C
:101D80000A128A15063083120313CF001330CE00D7
:101D9000B130CD00CD0BCA2ECE0BCA2ECF0BCA2E22
:101DA000D12E003083120313A0000030A1007C303C
:101DB000CD004D08A200A301A4010314A40DA501A8
:101DC0000A168A15C7200A128A15003083120313D7
:101DD000A0000030A1007C30CD004D08A200A3017E
:101DE0008030CE004E08A400A5010A168A15C7202F
:101DF0000A128A15003083120313A0000030A100DC
:101E00007C30CD004D08A200C030CE004E08A300AB
:101E10005230CF004F08A400A5010A168A15C7202A
:101E20000A128A15003083120313A0000030A100AB
:101E30007C30CD004D08A200C030CE004E08A3007B
:101E40005330CF004F08A400A5010A168A15C720F9
:101E50000A128A15003083120313A0000030A1007B
:101E60007C30CD004D08A200C030CE004E08A3004B
:101E70005330CF004F08A400A5010A168A15C720C9
:101E80000A128A15003083120313A0000030A1004B
:101E90007C30CD004D08A200C030CE004E08A3001B
:101EA0004930CF004F08A400A5010A168A15C720A3
:101EB0000A128A15003083120313A0000030A1001B
:101EC0007C30CD004D08A200A301C230CE004E08E8
:101ED000A400A5010A168A15C7200A128A15003027
:101EE00083120313A0000030A1007C30CD004D0808
:101EF000A200C030CE004E08A3002D30CF004F0806
:101F0000A400A5010A168A15C7200A128A150030F6
:101F100083120313A0000030A1007C30CD004D08D7
:101F2000A200C030CE004E08A3003130CF004F08D1
:101F3000A400A5010A168A15C7200A128A150030C6
:101F400083120313A0000030A1007C30CD004D08A7
:101F5000A200C030CE004E08A3003030CF004F08A2
:101F6000A400A5010A168A15C7200A128A15003096
:101F700083120313A0000030A1007C30CD004D0877
:101F8000A200C030CE004E08A3003030CF004F0872
:101F9000A400A5010A168A15C7200A128A150A1676
:101FA0008A11B9240A128A15D72FD72FD72F0630B6
:101FB00083120313CF001330CE00B130CD00CD0B10
:101FC000DF2FCE0BDF2FCF0BDF2FE62F003083125A
:101FD0000313A0000030A1007C30CD004D08A2000A
:101FE000A301A4010314A40DA5010A168A15C72094
:101FF0000A128A150A168A15C1250A128A150800BE
:1020000083120313A401A5010528201C0828092810
:102010000F282208A4070318A50A2308A5070130E2
:102020000310A20DA30DFF3E031D10280130031065
:10203000A10CA00CFF3E031D172821082004031D3E
:1020400022282328052824282508A101A1072408DF
:10205000A001A0072B280800123083160313B2003A
:102060000030B3001230B0000030B100B401B5014F
:102070007030A8001730A900AE01AF01A001A10186
:10208000A401A501AA01AB01AC01AD01A201A3010C
:10209000A601A7010030F4000030F5000A168A15E9
:1020A00067200A168A118316031788018901FF30F9
:1020B000831603138500F73086001B3087008801E4
:1020C0002830831203139400803083160313940086
:1020D0000930930070308312031390000C108316A4
:1020E00003130C148312031310100B178B170130FA
:1020F000F4000030F5000A168A1567200A168A11C6
:1021000083120313081000300A168A1548200A1695
:102110008A1183120313DA00DB015A0883160313B2
:10212000B200831203135B0883160313B30001305C
:102130000A168A1548200A168A1183120313DA0038
:10214000DB015A0883160313B000831203135B08E4
:1021500083160313B10003300A168A1548200A16A5
:102160008A1183120313DA0002300A168A154820F6
:102170000A168A1183120313DB00DC015B08A0003E
:102180005C08A1000A30A2000030A3000A168A11E0
:1021900000200A168A11831203135A082007F80038
:1021A0000030031801302107F90004300A168A159F
:1021B00048200A168A1183120313DA00DB015A0839
:1021C00083160313B400831203135B0883160313EF
:1021D000B500EA2883120313051DEF28F2280A121E
:1021E0008A11262EF428F4280519F728F828F4284F
:1021F00008160030F4000030F5000A168A15672032
:102200000A168A11823083120313DB00DD30DA00F4
:10221000DA0B0829DB0B08290D290130831603137B
:10222000A2000030A3000A168A15D8230A168A11C4
:102230000A128A1517200A168A1183160313320808
:102240000A168A152D200A168A11023083120313EA
:10225000AE000030AF004630B0000030B100831651
:102260000313310883120313B301B3078316031357
:10227000300883120313B201B2070A128A116827C9
:102280000A168A11023083120313AE000030AF0029
:102290004230B0000030B1008316031335088312BA
:1022A0000313B301B3078316031334088312031314
:1022B000B201B2070A128A1168270A168A11013080
:1022C00083120313B5000030B6007908B801B807CF
:1022D0007808B701B7070A168A15C7240A168A11A3
:1022E0000A168A15C1250A168A1179088312031362
:1022F000B601B6077808B501B5070A168A15A221F6
:102300000A168A110A128A11822D013083120313D0
:10231000D4000030D500D601D7010230D8000030FB
:10232000D90055300A168A1548200A168A118312D8
:102330000313C600C7014608D0004708D100543037
:102340000A168A1548200A168A1183120313C6003A
:10235000C7014608D2004708D300B52A0130D80784
:102360000318D90A0030D9075908803AFF00803095
:102370007F02031DBD2902305802031CC029C12958
:10238000272A83120313D801D901013042064304DE
:10239000031DCB29CC29E7294508803AFF0084306A
:1023A0007F02031DD5294D304402031CD829D929A9
:1023B000DF29403083120313C4000130C50001300F
:1023C00083120313C4070318C50A0030C50702307F
:1023D00042064304031DED29EE290A2A4508803AE6
:1023E000FF0081307F02031DF729403044020318AB
:1023F000FA29FB29012A4C3083120313C40004304C
:10240000C500FF3083120313C4070318C50AFF3049
:10241000C5070A2A4508B601B6074408B501B5073D
:102420000A168A15A2210A168A1101308312031393
:10243000B5000030B6004508B801B8074408B70138
:10244000B7070A168A15C7240A168A11272A49309F
:1024500083120313C700B930C600C60B2D2AC70B61
:102460002D2A003083120313A6000030A7006A3023
:10247000C6004608A8001430C7004708A9000A167D
:102480008A1569220A168A111F3083120313260542
:10249000C80000302705C9000230FF000310C80D36
:1024A000C90DFF0B4E2A0130A6000030A7006A308C
:1024B000CA004A08A8001430CB004B08A9000A162D
:1024C0008A1569220A168A11831203132608CC0082
:1024D0002708CD000630FF004D0DCD0CCC0CFF0BB6
:1024E0006C2A03304C05CE0000304D05CF00480863
:1024F0004E07D40049080318490A4F07D500123087
:10250000C6004608A9006A30C7004708A800013085
:10251000A6000030A7000A168A1569220A168A1139
:10252000831203132608C8002708C9000330FF00E0
:10253000490DC90CC80CFF0B982A1F304805A00094
:1025400000304905A1000330A2000030A3000A16A4
:102550008A1100200A168A11831203132108D70159
:10256000D7072008D601D607B52A5108803AC600F9
:102570005508803A4602031DBF2A5408500203182A
:10258000C22AC32AD32A831203135308803AC600EF
:102590005708803A4602031DCF2A56085202031CF0
:1025A000D22AD32ADB2A83120313051DD82AD92A5B
:1025B000AE29DB2ADB2A003083120313A00000308F
:1025C000A1007C30C6004608A200A301C430C700A9
:1025D0004708A400A5010A168A15C7200A168A1101
:1025E000003083120313A0000030A1007C30C6002D
:1025F0004608A200C030C7004708A3002030C8002A
:102600004808A400A5010A168A15C7200A168A11CF
:10261000092B8312031305190E2B0F2B092B102BDB
:102620004508C301C3074408C201C207172B0800AD
:1026300055300A168A1548200A168A118312031388
:10264000BB00BC013B08C7003C08C8000230AE001C
:102650000030AF000530B0000030B1004808B301D1
:10266000B3074708B201B2070A128A1168270A168F
:102670008A113A2B8312031305193F2B402B3A2B57
:102680008518432B442B3A2B8519472B482B3A2B83
:10269000422C422C0030A6000030A7006A30BB005C
:1026A0003B08A8001430BC003C08A9000A168A1593
:1026B00069220A168A111F30831203132605BD00F2
:1026C00000302705BE000230FF000310BD0DBE0D17
:1026D000FF0B652B0130A6000030A7006A30BF0059
:1026E0003F08A8001430C0004008A9000A168A1547
:1026F00069220A168A11831203132608C1002708CB
:10270000C2000630FF00420DC20CC10CFF0B832B30
:1027100003304105C30000304205C4003D084307B3
:10272000C5003E0803183E0A4407C6000030A0005A
:102730000030A1007C30BB003B08A200A301803028
:10274000BC003C08A400A5010A168A15C7200A1679
:102750008A11023083120313AE000030AF00403004
:10276000B0000030B1004608B301B3074508B2011C
:10277000B2070A128A1168270A168A115B3083127F
:102780000313BC00E730BB00BB0BC42BBC0BC42B3A
:10279000C92B83120313851CCE2BCF2B002C48088A
:1027A000803AFF0080307F02031DD82B7F30470224
:1027B0000318DB2BDC2B002C013083120313C7071B
:1027C0000318C80A0030C8070230AE000030AF005E
:1027D0000530B0000030B1004808B301B307470826
:1027E000B201B2070A128A1168270A168A11F82B59
:1027F000831203130519FD2BFE2BF82B002C002C44
:102800005B3083120313BC00E730BB00BB0B062C0C
:10281000BC0B062C0B2C83120313851D102C112CC2
:10282000422C4808803AFF0080307F02031D1A2C9A
:1028300001304702031C1D2C1E2C422CFF3083123A
:102840000313C7070318C80AFF30C8070230AE00D9
:102850000030AF000530B0000030B1004808B301CF
:10286000B3074708B201B2070A128A1168270A168D
:102870008A113A2C8312031305193F2C402C3A2C51
:10288000422C422C83120313051D472C482C4A2B43
:1028900085184B2C4C2C4A2B85194F2C502C4A2B2D
:1028A000512C4708BB003B08F50055300A168A1525
:1028B00090200A168A11003083120313A000003002
:1028C000A1007C30BB003B08A200A301C430BC00C7
:1028D0003C08A400A5010A168A15C7200A168A1109
:1028E000003083120313A0000030A1007C30BB0035
:1028F0003B08A200C030BC003C08A3002030BD0053
:102900003D08A400A5010A168A15C7200A168A11D7
:10291000003083120313A0000030A1007C30BB0004
:102920003B08A200C030BC003C08A3004F30BD00F3
:102930003D08A400A5010A168A15C7200A168A11A7
:10294000003083120313A0000030A1007C30BB00D4
:102950003B08A200C030BC003C08A3004B30BD00C7
:102960003D08A400A5010A168A15C7200A168A1177
:10297000080054300A168A1548200A168A11831254
:102980000313BB00BC013B08C1003C08C20002307D
:10299000AE000030AF000530B0000030B10042089A
:1029A000B301B3074108B201B2070A128A116827BE
:1029B0000A168A11DB2C831203130519E02CE12C73
:1029C000DB2C8518E42CE52CDB2C8519E82CE92C74
:1029D000DB2CCC2DCC2D1230BB003B08A9006A307B
:1029E000BC003C08A8000130A6000030A7000A1671
:1029F0008A1569220A168A11831203132608BD005C
:102A00002708BE000330FF003E0DBE0CBD0CFF0BBF
:102A1000042D1F303D05A00000303E05A10003300D
:102A2000A2000030A3000A168A1100200A168A119B
:102A3000831203132108C001C0072008BF01BF078C
:102A40000030A0000030A1007C30BB003B08A20099
:102A5000A3018030BC003C08A400A5010A168A1519
:102A6000C7200A168A11023083120313AE00003009
:102A7000AF004030B0000030B1004008B301B307F0
:102A80003F08B201B2070A128A1168270A168A1192
:102A90005B3083120313BC00E730BB00BB0B4E2D31
:102AA000BC0B4E2D532D83120313851C582D592D0D
:102AB0008A2D4208803AFF0080307F02031D622D7C
:102AC0005D3041020318652D662D8A2D0130831279
:102AD0000313C1070318C20A0030C2070230AE0058
:102AE0000030AF000530B0000030B1004208B30143
:102AF000B3074108B201B2070A128A1168270A1601
:102B00008A11822D831203130519872D882D822D9A
:102B10008A2D8A2D5B3083120313BC00E730BB0083
:102B2000BB0B902DBC0B902D952D83120313851D8F
:102B30009A2D9B2DCC2D4208803AFF0080307F02D9
:102B4000031DA42D01304102031CA72DA82DCC2D5F
:102B5000FF3083120313C1070318C20AFF30C207F4
:102B60000230AE000030AF000530B0000030B100E0
:102B70004208B301B3074108B201B2070A128A1131
:102B800068270A168A11C42D831203130519C92D4B
:102B9000CA2DC42DCC2DCC2D83120313051DD12D90
:102BA000D22DEB2C8518D52DD62DEB2C8519D92DB2
:102BB000DA2DEB2CDB2D4108BB003B08F50054302F
:102BC0000A168A1590200A168A1100308312031300
:102BD000A0000030A1007C30BB003B08A200A30194
:102BE000C330BC003C08A400A5010A168A15C72002
:102BF0000A168A11003083120313A0000030A100CE
:102C00007C30BB003B08A200C030BC003C08A300E5
:102C10002030BD003D08A400A5010A168A15C72072
:102C20000A168A11003083120313A0000030A1009D
:102C30007C30BB003B08A200C030BC003C08A300B5
:102C40002030BD003D08A400A5010A168A15C72042
:102C50000A168A11003083120313A0000030A1006D
:102C60007C30BB003B08A200C030BC003C08A30085
:102C70004F30BD003D08A400A5010A168A15C720E3
:102C80000A168A11003083120313A0000030A1003D
:102C90007C30BB003B08A200C030BC003C08A30055
:102CA0004B30BD003D08A400A5010A168A15C720B7
:102CB0000A168A110800003083120313A6000030A0
:102CC000A7006A30C2004208A8000430C3004308CD
:102CD000A9000A168A1569220A168A11831203139B
:102CE00026080339C4004408C6000030A0000030A4
:102CF000A1007C30C2004208A200A301C630C3007C
:102D00004308A400A5010A168A15C7200A168A11CD
:102D1000023083120313AE000030AF004030B00029
:102D20000030B1004608C200C3014208B2004308A7
:102D3000B3000A128A1168270A168A1156300A1639
:102D40008A1548200A168A11033983120313C20018
:102D50004208C6000230AE000030AF000530B000BF
:102D60000030B1004608C200C3014208B200430867
:102D7000B3000A128A1168270A168A11BF2E83121D
:102D800003130519C42EC52EBF2E8518C82EC92EB3
:102D9000BF2E8519CC2ECD2EBF2E8B2F8B2F5B30C7
:102DA000C300E730C200C20BD32EC30BD32ED82EE4
:102DB00083120313851CDD2EDE2E2F2F03304602D7
:102DC0000318E32EE42E2F2F0130C2004208C6075D
:102DD0000130A0000030A1006A30C2004208A20009
:102DE0000430C3004308A30046080339C038C400B8
:102DF0004408A4008030C5004508A5000A168A15BD
:102E0000C7200A168A11790883120313B601B60780
:102E10007808B501B5070A168A15A2210A168A1183
:102E2000023083120313AE000030AF000530B00053
:102E30000030B1004608C200C3014208B200430896
:102E4000B3000A128A1168270A168A11272F8312E3
:102E5000031305192C2F2D2F272F2F2F2F2F5B30EA
:102E6000C300E730C200C20B332FC30B332F382F00
:102E700083120313851D3D2F3E2F8B2F4608031D04
:102E8000422F8B2F0130C6020130A0000030A1007C
:102E90006A30C2004208A2000430C3004308A30005
:102EA00046080339C038C4004408A4008030C50077
:102EB0004508A5000A168A15C7200A168A1179083E
:102EC00083120313B601B6077808B501B5070A16D1
:102ED0008A15A2210A168A11023083120313AE004A
:102EE0000030AF000530B0000030B1004608C2002D
:102EF000C3014208B2004308B3000A128A116827CE
:102F00000A168A11832F831203130519882F892F1C
:102F1000832F8B2F8B2F051D8E2F8F2FCF2E851854
:102F2000922F932FCF2E8519962F972FCF2E982F34
:102F30004608C2004208F50056300A168A1590204D
:102F40000A168A11003083120313A0000030A1007A
:102F50007C30C2004208A200A301C430C300430871
:102F6000A400A5010A168A15C7200A168A11003086
:102F700083120313A0000030A1007C30C20042087D
:102F8000A200C030C3004308A3002030C40044089E
:102F9000A400A5010A168A15C7200A168A11003056
:102FA00083120313A0000030A1007C30C20042084D
:102FB000A200C030C3004308A3004F30C40044083F
:102FC000A400A5010A168A15C7200A168A11003026
:102FD00083120313A0000030A1007C30C20042081D
:102FE000A200C030C3004308A3004B30C400440813
:102FF000A400A5010A168A15C7200A168A1108001E
:10301000F601F7010A128A11FD270A168A15F8002F
:103020000A128A11FE270A168A15F90083010A1668
:103030008A112C280C1C1D281E282228F601F701B5
:103040000C1022287308FF0072088A00710884009F
:10305000700E8300FE0E7E0E090083120313AA0079
:103060000130A0000030A1006A30A7002708A200AC
:103070000F30A8002808A300A4012A081F39A900BE
:103080002908A5000A168A15C7200A168A150800FD
:10309000F5006400831603178C184F285028492820
:1030A00051287508831203178D003F30F40074080F
:1030B000831603178C050C1403100C18031400302E
:1030C00003180130831203170C08662808007C28B7
:1030D0006030831603138F008F28831603138F012C
:1030E0008F284030831603138F008F2830308316CB
:1030F00003138F008F288F287508003A0319812841
:103100008F287408003A03196828013A03196D28BA
:10311000033A03197128013A031976288F28080009
:1031200083120313A9009428831603178C18992877
:103130009A2894289B2883120313290883120317C3
:103140008D0075088C003F3083120313A8002808F7
:10315000831603178C058312031303108B1FB128EA
:10316000B228B32803148B13831603170C1555309C
:103170008D00AA308D008C140C1183120313031CD4
:10318000C228C328C6288B17C628C628080083165D
:1031900003131114CB281118CE28CF28CB28D02800
:1031A0008312031322080A128A1500200A168A15B0
:1031B0008312031323080A128A1500200A168A159F
:1031C0008312031324080A128A1500200A168A158E
:1031D00001308312031320062104031DF028F12877
:1031E000F82825080A128A1500200A168A15F828D8
:1031F000831203138C11831603131115FF28111961
:1032000002290329FF280429083083120313A6008A
:10321000A60B08290B290800831203132108200498
:103220000319132914294A29F5010314F50D24293A
:1032300001300310A00DA10DFF3E031D192901301F
:10324000F4007408F5072429A11F27292829182923
:103250002A292A2921082302031D302920082202B5
:10326000031C332934293B292008A2022108031C0E
:10327000A303A3023B2901300310A10CA00CFF3EC5
:10328000031D3C290130F502031D472948292A293D
:103290004A294A292308A101A1072208A001A00761
:1032A0005129080083120313AC01AD01270826043D
:1032B00003195B295C299A29AB010314AB0D6C2916
:1032C00001300310A60DA70DFF3E031D612901303B
:1032D000AA002A08AB076C29A71F6F29702960294B
:1032E0007229722901300310AC0DAD0DFF3E031D94
:1032F000732927082902031D7F2926082802031C99
:10330000822983298B292608A8022708031CA903E0
:10331000A9022C148B2901300310A70CA60CFF3E28
:10332000031D8C290130AB02031D972998297229AE
:103330009A299A292D08A701A7072C08A601A607F4
:10334000A1290800013083120313A0000030A1005E
:103350006A30B7003708A2000330B8003808A3006D
:103360003608BA003508B90007300310BA0CB90C9A
:10337000FF3E031DB5293908BB003B08A4003508F2
:10338000BC003C07BD003D08A5000A168A15C720F1
:103390000A168A15013083120313A0000030A10021
:1033A0006A30B7003708A2000330B8003808A3001D
:1033B0003608BA003508B9000130FF000310B90D16
:1033C000BA0DFF0BDE2900303905BB00FF303A058E
:1033D000BC003B08003EBD003C080318013E803E97
:1033E000BE003E08BF003F08A4003508C0004007EB
:1033F000C1004108A5000A168A15C7200A168A15B9
:10340000080083120313A501A31F072A082A112A03
:10341000A209A309A20A0319A30AA5010314A50D71
:10342000112AA11F142A152A1B2AA009A109A00AE2
:103430000319A10A1B2A210820040319202A212A82
:10344000572AA4010314A40D312A01300310A00D42
:10345000A10DFF3E031D262A0130F4007408A407C5
:10346000312AA11F342A352A252A372A372A21084A
:103470002302031D3D2A20082202031C402A412A60
:10348000482A2008A2022108031CA303A302482AF9
:1034900001300310A10CA00CFF3E031D492A01308E
:1034A000A402031D542A552A372A572A572A2508C9
:1034B000031D5B2A612AA209A309A20A0319A30A10
:1034C000612A2308A101A1072208A001A007682AF8
:1034D0000800093083160313930011146F2A111882
:1034E000722A732A6F2A742A8312031328080A1275
:1034F0008A1500200A168A158312031329080A1256
:103500008A1500200A168A15831603139114882A37
:1035100091188B2A8C2A882A8D2A83120313280853
:10352000013E0A128A1500200A168A158316031313
:1035300091159A2A91199D2A9E2A9A2A9F2A8312C6
:1035400003131308AA002A08AC0083160313911270
:103550001116AA2A111AAD2AAE2AAA2A9115B02A42
:103560009119B32AB42AB02AB52A83120313130877
:10357000AA002A08AD008316031391161116C02A5B
:10358000111AC32AC42AC02A1115C62A1119C92A18
:10359000CA2AC62ACB2A09309300831203132608AD
:1035A0002C3E840083130008AA00AB012A08A60061
:1035B0002B08A700DB2A080083120313A501A11F13
:1035C000E22AE32AEC2AA009A109A00A0319A10A08
:1035D000A5010314A50DEC2AA31FEF2AF02AFA2A4D
:1035E000A209A309A20A0319A30A0130F40074086E
:1035F000A506FA2AA601A701210820040319012B18
:10360000022B402BA4010314A40D122B0130031034
:10361000A00DA10DFF3E031D072B0130F40074081F
:10362000A407122BA11F152B162B062B182B182BBA
:1036300001300310A60DA70DFF3E031D192B210815
:103640002302031D252B20082202031C282B292BD3
:10365000312B2008A2022108031CA303A302261475
:10366000312B01300310A10CA00CFF3E031D322BA7
:103670000130A402031D3D2B3E2B182B402B402B69
:103680002508031D442B4A2BA609A709A60A0319DE
:10369000A70A4A2B2708A101A1072608A001A00715
:1036A000512B0800BF2B831203132C08283E0A1647
:1036B0008A1548200A168A1583120313B0002C08B5
:1036C000083E0A168A1548200A168A158312031323
:1036D000B100B2013108A0003208A1000A30A200F6
:1036E0000030A3000A168A1100200A168A158312D8
:1036F000031330082007B3000030031801302107FE
:10370000B400CE2B0A30A0000030A1002F08A30186
:10371000A3072E08A201A2070A168A15DC220A16A0
:103720008A15831203132008B0003008F5002C0816
:10373000083E0A168A1590200A168A150A30831246
:103740000313A0000030A1002F08A301A3072E0837
:10375000A201A2070A168A1501220A168A158312E7
:1037600003132008B0003008F5002C08283E0A1684
:103770008A1590200A168A15CE2BCE2BCE2B8312BB
:1037800003132B08003A0319C62BCE2B2A08003A44
:103790000319532B013A0319822BCE2B83120313E7
:1037A0003408AB01AB073308AA01AA07D72B0800DE
:1037B0008312031387128230A800DD30A700A70B05
:1037C000DF2BA80BDF2BE42B831203138716823029
:1037D000A800DD30A700A70BEB2BA80BEB2BF02BE1
:1037E000003083120313A0000030A1007C30A7003A
:1037F0002708A200A3013830A8002808A400A501CA
:103800000A168A15C7200A168A1500308312031378
:10381000A0000030A1007C30A7002708A200A3016F
:103820003930A8002808A400A5010A168A15C72067
:103830000A168A15003083120313A0000030A1007D
:103840007C30A7002708A200A3011430A800280894
:10385000A400A5010A168A15C7200A168A15003089
:1038600083120313A0000030A1007C30A7002708BA
:10387000A200A3017030A8002808A400A5010A1620
:103880008A15C7200A168A15003083120313A00078
:103890000030A1007C30A7002708A200A301563009
:1038A000A8002808A400A5010A168A15C7200A1630
:1038B0008A15003083120313A0000030A1007C3071
:1038C000A7002708A200A3016C30A8002808A400C4
:1038D000A5010A168A15C7200A168A150230831216
:1038E0000313A9000430A800BA30A700A70B762C58
:1038F000A80B762CA90B762C6400003083120313DE
:10390000A0000030A1007C30A7002708A200A3017E
:103910003830A8002808A400A5010A168A15C72077
:103920000A168A15003083120313A0000030A1008C
:103930007C30A7002708A200A3010C30A8002808AB
:10394000A400A5010A168A15C7200A168A15003098
:1039500083120313A0000030A1007C30A7002708C9
:10396000A200A301A4010314A40DA5010A168A153F
:10397000C7200A168A150D3083120313A800FB30E6
:10398000A700A70BC12CA80BC12CC62C08006430C3
:1039900083120313A6000030A7003808A901A90765
:1039A0003708A801A8070A168A1552210A168A158F
:1039B000831203132708C101C1072608C001C007ED
:1039C0000A30A6000030A7004108A101A107400865
:1039D000A001A0076430A2000030A3000A168A11DB
:1039E00000200A168A15831203132009B900210941
:1039F000BA00B90A0319BA0A37083907A800380803
:103A00000318380A3A07A9000A168A1552210A161D
:103A10008A15831203132708BD01BD072608BC01C0
:103A2000BC070A30A0000030A1003808A301A3079A
:103A30003708A201A2070A168A150C210A168A1550
:103A4000831203132108BF01BF072008BE01BE0770
:103A50000F303E05B90000303F05BA003030390460
:103A6000BE0000303A04BF000F303C05B900003002
:103A70003D05BA0030303904BC0000303A04BD00C6
:103A80000F304005B90000304105BA00303039042C
:103A9000C00000303A04C1000030A0000030A10096
:103AA0007C30B9003908A200A3013508803EBA0075
:103AB0003A08A400A5010A168A15C7200A168A1515
:103AC000003083120313A0000030A1007C30B90045
:103AD0003908A200C030BA003A08A3004008BB0071
:103AE0003B08A400A5010A168A15C7200A168A15E4
:103AF000003083120313A0000030A1007C30B90015
:103B00003908A200C030BA003A08A3003C08BB0044
:103B10003B08A400A5010A168A15C7200A168A15B3
:103B2000003083120313A0000030A1007C30B900E4
:103B30003908A200C030BA003A08A3002E30BB00FA
:103B40003B08A400A5010A168A15C7200A168A1583
:103B5000003083120313A0000030A1007C30B900B4
:103B60003908A200C030BA003A08A3003E08BB00E2
:103B70003B08A400A5010A168A15C7200A168A1553
:103B80000800003083120313A0000030A1007C3035
:103B9000A7002708A200A3018330A8002808A400DA
:103BA000A5010A168A15C7200A168A150030831245
:103BB0000313A0000030A1007C30A7002708A2005A
:103BC000C030A8002808A3002E30A9002908A400AE
:103BD000A5010A168A15C7200A168A150030831215
:103BE0000313A0000030A1007C30A7002708A2002A
:103BF000A3018530A8002808A400A5010A168A158B
:103C0000C7200A168A15003083120313A000003063
:103C1000A1007C30A7002708A200C030A800280817
:103C2000A3004D30A9002908A400A5010A168A1591
:103C3000C7200A168A15003083120313A000003033
:103C4000A1007C30A7002708A200C030A8002808E7
:103C5000A3004830A9002908A400A5010A168A1566
:103C6000C7200A168A15003083120313A000003003
:103C7000A1007C30A7002708A200C030A8002808B7
:103C8000A3007A30A9002908A400A5010A168A1504
:103C9000C7200A168A15003083120313A0000030D3
:103CA000A1007C30A7002708A200A301C030A80013
:103CB0002808A400A5010A168A15C7200A168A1525
:103CC000003083120313A0000030A1007C30A70055
:103CD0002708A200C030A8002808A3004E30A90081
:103CE0002908A400A5010A168A15C7200A168A15F4
:103CF000003083120313A0000030A1007C30A70025
:103D00002708A200C030A8002808A3006F30A9002F
:103D10002908A400A5010A168A15C7200A168A15C3
:103D2000003083120313A0000030A1007C30A700F4
:103D30002708A200A301C530A8002808A400A501F7
:103D40000A168A15C7200A168A1500308312031333
:103D5000A0000030A1007C30A7002708A200C030DE
:103D6000A8002808A3007630A9002908A400A5010E
:103D70000A168A15C7200A168A1508005C2F033018
:103D8000F4000030F5000A168A1567200A168A1515
:103D9000831603139301003083120313A60000302F
:103DA000A7006A30DA005A08A8001230DB005B086E
:103DB000A9000A168A1569220A168A150330831289
:103DC00003132605DC0000302705DD0003305C0608
:103DD0005D04031DEC2EED2E192F0030A0000030E5
:103DE000A1007C30DA005A08A200A3018030DB0079
:103DF0005B08A400A5010A168A15C7200A168A15B1
:103E0000003083120313A0000030A1007C30DA00E0
:103E10005A08A200C030DB005B08A3005330DC006E
:103E20005C08A400A5010A168A15C7200A168A157F
:103E3000472F003083120313A0000030A1007C3014
:103E4000DA005A08A200A3018030DB005B08A4005E
:103E5000A5010A168A15C7200A168A150030831292
:103E60000313A0000030A1007C30DA005A08A20041
:103E7000C030DB005B08A3004D30DC005C08A40010
:103E8000A5010A168A15C7200A168A15472F013080
:103E9000F4000030F5000A168A1567200A168A1504
:103EA00009308316031393004F3083120313DA0093
:103EB000DA0B582F5B2F5C2F831203138518612FA9
:103EC000622F6C2F8519652F662F6C2F051D692FAA
:103ED0006A2FBF2E6C2F6C2F0230F4000030F500DB
:103EE0000A168A1567200A168A15831603132908ED
:103EF000831203138F0083160313280883120313FE
:103F00008E000130F6000030F70010148316031302
:103F1000AA01AB010A128A113F2883120313851CE0
:103F2000922F952F0A128A111C2877087604031DF8
:103F30009A2F9B2F922F0030F4000030F5000A16C4
:103F40008A1567200A168A15003083120313A00011
:103F50000030A1007C30DA005A08A200A301C4306E
:103F6000DB005B08A400A5010A168A15C7200A1603
:103F70008A15003083120313A0000030A1007C30AA
:103F8000DA005A08A200C030DB005B08A3007E30D4
:103F9000DC005C08A400A5010A168A15C7200A16D1
:103FA0008A15033083160313AA000030AB000130DA
:103FB000AE000030AF00013083120313C2000030A6
:103FC000C3007908C501C5077808C401C4070A16EB
:103FD0008A1185210A168A15831203134308F901F1
:103FE000F9074208F801F8070130F4000030F50045
:103FF0000A168A1567200A168A150A128A111528C8
:02400E00C4E00C
:104200000F000F004C00050000000000000000003F
:104210004C0050005600500053004E004E0051001C
:104220004F0052005400550050004D004F004E000A
:10423000000000000000000000000000000000007E
:10424000000000000000000000000000000000006E
:104250000500000001000300060005000300050042
:104260000300010003000600070008000500090024
:10427000000000000000000000000000000000003E
:10428000000000000000000000000000000000002E
:10429000000000000000000000000000000000001E
:1042A000000000000000300009002E0001000000A6
:00000001FF
